{
  "contractName": "WitmonERC721",
  "abi": [
    {
      "inputs": [
        {
          "internalType": "contract WitnetRequestBoard",
          "name": "_witnet",
          "type": "address"
        },
        {
          "internalType": "string",
          "name": "_name",
          "type": "string"
        },
        {
          "internalType": "string",
          "name": "_symbol",
          "type": "string"
        },
        {
          "internalType": "address",
          "name": "_signator",
          "type": "address"
        },
        {
          "internalType": "contract IWitmonDecorator",
          "name": "_decorator",
          "type": "address"
        },
        {
          "internalType": "uint8[]",
          "name": "_percentileMarks",
          "type": "uint8[]"
        },
        {
          "internalType": "uint256",
          "name": "_expirationBlocks",
          "type": "uint256"
        }
      ],
      "stateMutability": "nonpayable",
      "type": "constructor"
    },
    {
      "anonymous": false,
      "inputs": [
        {
          "indexed": true,
          "internalType": "address",
          "name": "owner",
          "type": "address"
        },
        {
          "indexed": true,
          "internalType": "address",
          "name": "approved",
          "type": "address"
        },
        {
          "indexed": true,
          "internalType": "uint256",
          "name": "tokenId",
          "type": "uint256"
        }
      ],
      "name": "Approval",
      "type": "event"
    },
    {
      "anonymous": false,
      "inputs": [
        {
          "indexed": true,
          "internalType": "address",
          "name": "owner",
          "type": "address"
        },
        {
          "indexed": true,
          "internalType": "address",
          "name": "operator",
          "type": "address"
        },
        {
          "indexed": false,
          "internalType": "bool",
          "name": "approved",
          "type": "bool"
        }
      ],
      "name": "ApprovalForAll",
      "type": "event"
    },
    {
      "anonymous": false,
      "inputs": [
        {
          "indexed": false,
          "internalType": "address",
          "name": "signator",
          "type": "address"
        },
        {
          "indexed": false,
          "internalType": "contract IWitmonDecorator",
          "name": "decorator",
          "type": "address"
        },
        {
          "indexed": false,
          "internalType": "uint8[]",
          "name": "percentileMarks",
          "type": "uint8[]"
        },
        {
          "indexed": false,
          "internalType": "uint256",
          "name": "expirationBlocks",
          "type": "uint256"
        }
      ],
      "name": "BatchParameters",
      "type": "event"
    },
    {
      "anonymous": false,
      "inputs": [
        {
          "indexed": false,
          "internalType": "uint256",
          "name": "eggIndex",
          "type": "uint256"
        },
        {
          "indexed": false,
          "internalType": "uint256",
          "name": "tokenId",
          "type": "uint256"
        }
      ],
      "name": "NewCreature",
      "type": "event"
    },
    {
      "anonymous": false,
      "inputs": [
        {
          "indexed": true,
          "internalType": "address",
          "name": "previousOwner",
          "type": "address"
        },
        {
          "indexed": true,
          "internalType": "address",
          "name": "newOwner",
          "type": "address"
        }
      ],
      "name": "OwnershipTransferred",
      "type": "event"
    },
    {
      "anonymous": false,
      "inputs": [
        {
          "indexed": true,
          "internalType": "address",
          "name": "from",
          "type": "address"
        },
        {
          "indexed": true,
          "internalType": "address",
          "name": "to",
          "type": "address"
        },
        {
          "indexed": true,
          "internalType": "uint256",
          "name": "tokenId",
          "type": "uint256"
        }
      ],
      "name": "Transfer",
      "type": "event"
    },
    {
      "anonymous": false,
      "inputs": [
        {
          "indexed": false,
          "internalType": "string",
          "name": "reason",
          "type": "string"
        }
      ],
      "name": "WitnetError",
      "type": "event"
    },
    {
      "anonymous": false,
      "inputs": [
        {
          "indexed": false,
          "internalType": "bytes32",
          "name": "randomness",
          "type": "bytes32"
        }
      ],
      "name": "WitnetResult",
      "type": "event"
    },
    {
      "inputs": [
        {
          "internalType": "address",
          "name": "to",
          "type": "address"
        },
        {
          "internalType": "uint256",
          "name": "tokenId",
          "type": "uint256"
        }
      ],
      "name": "approve",
      "outputs": [],
      "stateMutability": "nonpayable",
      "type": "function"
    },
    {
      "inputs": [
        {
          "internalType": "address",
          "name": "owner",
          "type": "address"
        }
      ],
      "name": "balanceOf",
      "outputs": [
        {
          "internalType": "uint256",
          "name": "",
          "type": "uint256"
        }
      ],
      "stateMutability": "view",
      "type": "function"
    },
    {
      "inputs": [
        {
          "internalType": "uint256",
          "name": "tokenId",
          "type": "uint256"
        }
      ],
      "name": "getApproved",
      "outputs": [
        {
          "internalType": "address",
          "name": "",
          "type": "address"
        }
      ],
      "stateMutability": "view",
      "type": "function"
    },
    {
      "inputs": [
        {
          "internalType": "address",
          "name": "owner",
          "type": "address"
        },
        {
          "internalType": "address",
          "name": "operator",
          "type": "address"
        }
      ],
      "name": "isApprovedForAll",
      "outputs": [
        {
          "internalType": "bool",
          "name": "",
          "type": "bool"
        }
      ],
      "stateMutability": "view",
      "type": "function"
    },
    {
      "inputs": [],
      "name": "name",
      "outputs": [
        {
          "internalType": "string",
          "name": "",
          "type": "string"
        }
      ],
      "stateMutability": "view",
      "type": "function"
    },
    {
      "inputs": [],
      "name": "owner",
      "outputs": [
        {
          "internalType": "address",
          "name": "",
          "type": "address"
        }
      ],
      "stateMutability": "view",
      "type": "function"
    },
    {
      "inputs": [
        {
          "internalType": "uint256",
          "name": "tokenId",
          "type": "uint256"
        }
      ],
      "name": "ownerOf",
      "outputs": [
        {
          "internalType": "address",
          "name": "",
          "type": "address"
        }
      ],
      "stateMutability": "view",
      "type": "function"
    },
    {
      "inputs": [],
      "name": "renounceOwnership",
      "outputs": [],
      "stateMutability": "nonpayable",
      "type": "function"
    },
    {
      "inputs": [
        {
          "internalType": "address",
          "name": "from",
          "type": "address"
        },
        {
          "internalType": "address",
          "name": "to",
          "type": "address"
        },
        {
          "internalType": "uint256",
          "name": "tokenId",
          "type": "uint256"
        }
      ],
      "name": "safeTransferFrom",
      "outputs": [],
      "stateMutability": "nonpayable",
      "type": "function"
    },
    {
      "inputs": [
        {
          "internalType": "address",
          "name": "from",
          "type": "address"
        },
        {
          "internalType": "address",
          "name": "to",
          "type": "address"
        },
        {
          "internalType": "uint256",
          "name": "tokenId",
          "type": "uint256"
        },
        {
          "internalType": "bytes",
          "name": "_data",
          "type": "bytes"
        }
      ],
      "name": "safeTransferFrom",
      "outputs": [],
      "stateMutability": "nonpayable",
      "type": "function"
    },
    {
      "inputs": [
        {
          "internalType": "address",
          "name": "operator",
          "type": "address"
        },
        {
          "internalType": "bool",
          "name": "approved",
          "type": "bool"
        }
      ],
      "name": "setApprovalForAll",
      "outputs": [],
      "stateMutability": "nonpayable",
      "type": "function"
    },
    {
      "inputs": [
        {
          "internalType": "bytes4",
          "name": "interfaceId",
          "type": "bytes4"
        }
      ],
      "name": "supportsInterface",
      "outputs": [
        {
          "internalType": "bool",
          "name": "",
          "type": "bool"
        }
      ],
      "stateMutability": "view",
      "type": "function"
    },
    {
      "inputs": [],
      "name": "symbol",
      "outputs": [
        {
          "internalType": "string",
          "name": "",
          "type": "string"
        }
      ],
      "stateMutability": "view",
      "type": "function"
    },
    {
      "inputs": [
        {
          "internalType": "address",
          "name": "from",
          "type": "address"
        },
        {
          "internalType": "address",
          "name": "to",
          "type": "address"
        },
        {
          "internalType": "uint256",
          "name": "tokenId",
          "type": "uint256"
        }
      ],
      "name": "transferFrom",
      "outputs": [],
      "stateMutability": "nonpayable",
      "type": "function"
    },
    {
      "inputs": [
        {
          "internalType": "address",
          "name": "newOwner",
          "type": "address"
        }
      ],
      "name": "transferOwnership",
      "outputs": [],
      "stateMutability": "nonpayable",
      "type": "function"
    },
    {
      "inputs": [],
      "name": "witnet",
      "outputs": [
        {
          "internalType": "contract WitnetRequestBoard",
          "name": "",
          "type": "address"
        }
      ],
      "stateMutability": "view",
      "type": "function"
    },
    {
      "inputs": [
        {
          "internalType": "uint256",
          "name": "_tokenId",
          "type": "uint256"
        }
      ],
      "name": "metadata",
      "outputs": [
        {
          "internalType": "string",
          "name": "",
          "type": "string"
        }
      ],
      "stateMutability": "view",
      "type": "function"
    },
    {
      "inputs": [
        {
          "internalType": "uint256",
          "name": "_tokenId",
          "type": "uint256"
        }
      ],
      "name": "tokenURI",
      "outputs": [
        {
          "internalType": "string",
          "name": "",
          "type": "string"
        }
      ],
      "stateMutability": "view",
      "type": "function"
    },
    {
      "inputs": [
        {
          "internalType": "address",
          "name": "_signator",
          "type": "address"
        },
        {
          "internalType": "contract IWitmonDecorator",
          "name": "_decorator",
          "type": "address"
        },
        {
          "internalType": "uint8[]",
          "name": "_percentileMarks",
          "type": "uint8[]"
        },
        {
          "internalType": "uint256",
          "name": "_expirationBlocks",
          "type": "uint256"
        }
      ],
      "name": "setParameters",
      "outputs": [],
      "stateMutability": "nonpayable",
      "type": "function"
    },
    {
      "inputs": [],
      "name": "stopBatching",
      "outputs": [],
      "stateMutability": "payable",
      "type": "function"
    },
    {
      "inputs": [],
      "name": "startHatching",
      "outputs": [],
      "stateMutability": "nonpayable",
      "type": "function"
    },
    {
      "inputs": [
        {
          "internalType": "address",
          "name": "_eggOwner",
          "type": "address"
        },
        {
          "internalType": "uint256",
          "name": "_eggIndex",
          "type": "uint256"
        },
        {
          "internalType": "uint256",
          "name": "_eggColorIndex",
          "type": "uint256"
        },
        {
          "internalType": "uint256",
          "name": "_eggScore",
          "type": "uint256"
        },
        {
          "internalType": "uint256",
          "name": "_eggRanking",
          "type": "uint256"
        },
        {
          "internalType": "uint256",
          "name": "_totalClaimedEggs",
          "type": "uint256"
        },
        {
          "internalType": "bytes",
          "name": "_signature",
          "type": "bytes"
        }
      ],
      "name": "mintCreature",
      "outputs": [],
      "stateMutability": "nonpayable",
      "type": "function"
    },
    {
      "inputs": [
        {
          "internalType": "uint256",
          "name": "_eggIndex",
          "type": "uint256"
        }
      ],
      "name": "getCreatureData",
      "outputs": [
        {
          "components": [
            {
              "internalType": "uint256",
              "name": "tokenId",
              "type": "uint256"
            },
            {
              "internalType": "uint256",
              "name": "eggBirth",
              "type": "uint256"
            },
            {
              "internalType": "uint256",
              "name": "eggIndex",
              "type": "uint256"
            },
            {
              "internalType": "uint256",
              "name": "eggColorIndex",
              "type": "uint256"
            },
            {
              "internalType": "uint256",
              "name": "eggScore",
              "type": "uint256"
            },
            {
              "internalType": "uint256",
              "name": "eggRanking",
              "type": "uint256"
            },
            {
              "internalType": "bytes32",
              "name": "eggPhenotype",
              "type": "bytes32"
            },
            {
              "internalType": "enum Witmons.CreatureCategory",
              "name": "eggCategory",
              "type": "uint8"
            }
          ],
          "internalType": "struct Witmons.Creature",
          "name": "",
          "type": "tuple"
        }
      ],
      "stateMutability": "view",
      "type": "function"
    },
    {
      "inputs": [
        {
          "internalType": "uint256",
          "name": "_eggIndex",
          "type": "uint256"
        }
      ],
      "name": "getCreatureImage",
      "outputs": [
        {
          "internalType": "string",
          "name": "",
          "type": "string"
        }
      ],
      "stateMutability": "view",
      "type": "function"
    },
    {
      "inputs": [
        {
          "internalType": "uint256",
          "name": "_eggIndex",
          "type": "uint256"
        }
      ],
      "name": "getCreatureStatus",
      "outputs": [
        {
          "internalType": "enum Witmons.CreatureStatus",
          "name": "",
          "type": "uint8"
        }
      ],
      "stateMutability": "view",
      "type": "function"
    },
    {
      "inputs": [],
      "name": "getParameters",
      "outputs": [
        {
          "components": [
            {
              "internalType": "address",
              "name": "signator",
              "type": "address"
            },
            {
              "internalType": "address",
              "name": "decorator",
              "type": "address"
            },
            {
              "internalType": "uint8[]",
              "name": "percentileMarks",
              "type": "uint8[]"
            },
            {
              "internalType": "uint256",
              "name": "expirationBlocks",
              "type": "uint256"
            }
          ],
          "internalType": "struct Witmons.Parameters",
          "name": "",
          "type": "tuple"
        }
      ],
      "stateMutability": "view",
      "type": "function"
    },
    {
      "inputs": [],
      "name": "getStats",
      "outputs": [
        {
          "internalType": "uint256",
          "name": "_totalSupply",
          "type": "uint256"
        }
      ],
      "stateMutability": "view",
      "type": "function"
    },
    {
      "inputs": [],
      "name": "getStatus",
      "outputs": [
        {
          "internalType": "enum Witmons.Status",
          "name": "",
          "type": "uint8"
        }
      ],
      "stateMutability": "view",
      "type": "function"
    }
  ],
  "bytecode": "0x60a06040523480156200001157600080fd5b5060405162004a6a38038062004a6a8339810160408190526200003491620009ec565b86868681600090805190602001906200004f92919062000776565b5080516200006590600190602084019062000776565b505050620000826200007c6200018d60201b60201c565b62000191565b60016007556001600160a01b038116620000e35760405162461bcd60e51b815260206004820152601960248201527f5573696e675769746e65743a207a65726f20616464726573730000000000000060448201526064015b60405180910390fd5b60601b6001600160601b0319166080526200010184848484620001e3565b6040516200010f9062000805565b6020808252808201527f0a0f120508021a01801a0210022202100b10e807180a200a2833308094ebdc036040820152606001604051809103906000f0801580156200015e573d6000803e3d6000fd5b50600c80546001600160a01b0319166001600160a01b03929092169190911790555062000ce595505050505050565b3390565b600680546001600160a01b038381166001600160a01b0319831681179093556040519116919082907f8be0079c531659141344cd1fd0a4f28419497f9722a3daafe3b4186f6b6457e090600090a35050565b6006546001600160a01b031633146200023f5760405162461bcd60e51b815260206004820181905260248201527f4f776e61626c653a2063616c6c6572206973206e6f7420746865206f776e65726044820152606401620000da565b600080620002596008620005a860201b62001d771760201c565b60038111156200026d576200026d62000c8a565b1462000284826200060460201b62001dcc1760201c565b90620002a55760405162461bcd60e51b8152600401620000da919062000b36565b506001600160a01b038416620002fe5760405162461bcd60e51b815260206004820152601a60248201527f5769746d6f6e4552433732313a206e6f206465636f7261746f720000000000006044820152606401620000da565b6001600160a01b038516620003565760405162461bcd60e51b815260206004820152601960248201527f5769746d6f6e4552433732313a206e6f207369676e61746f72000000000000006044820152606401620000da565b620003646002600162000bb9565b60ff16835114620003c35760405162461bcd60e51b815260206004820152602260248201527f5769746d6f6e4552433732313a206261642070657263656e74696c65206d61726044820152616b7360f01b6064820152608401620000da565b82516001600160401b03811115620003df57620003df62000cb6565b60405190808252806020026020018201604052801562000409578160200160208202803683370190505b5080516200042091600a9160209091019062000813565b506000805b84518160ff161015620004c7576000858260ff16815181106200044c576200044c62000ca0565b602002602001015190508060086000016002018360ff168154811062000476576200047662000ca0565b90600052602060002090602091828204019190066101000a81548160ff021916908360ff1602179055508083620004ae919062000bb9565b9250508080620004be9062000c51565b91505062000425565b508060ff166064146200052b5760405162461bcd60e51b815260206004820152602560248201527f5769746d6f6e4552433732313a206261642070657263656e74696c6520636865604482015264636b73756d60d81b6064820152608401620000da565b600880546001600160a01b038089166001600160a01b0319928316179092556009805492881692909116919091179055600b8390556040517f376bc8606c664899c04033373f69a486860166d574d6356b5580ceae35db8d65906200059890889088908890889062000ac7565b60405180910390a1505050505050565b600681015460009015620005e45760038201546007830154620005cc919062000b9e565b4311620005db576002620005de565b60035b92915050565b600582015415620005f757506001919050565b506000919050565b919050565b606060038260038111156200061d576200061d62000c8a565b14156200065d57505060408051808201909152601e81527f5769746d6f6e733a206e6f7420696e20467265657a6564207374617475730000602082015290565b600082600381111562000674576200067462000c8a565b1415620006b457505060408051808201909152601f81527f5769746d6f6e733a206e6f7420696e204261746368696e672073746174757300602082015290565b6001826003811115620006cb57620006cb62000c8a565b1415620006f25760405180606001604052806022815260200162004a486022913992915050565b600282600381111562000709576200070962000c8a565b14156200074957505060408051808201909152601f81527f5769746d6f6e733a206e6f7420696e204861746368696e672073746174757300602082015290565b505060408051808201909152601181527015da5d1b5bdb9cce88189859081b5bdbd9607a1b602082015290565b828054620007849062000c14565b90600052602060002090601f016020900481019282620007a85760008555620007f3565b82601f10620007c357805160ff1916838001178555620007f3565b82800160010185558215620007f3579182015b82811115620007f3578251825591602001919060010190620007d6565b5062000801929150620008b6565b5090565b61051c806200452c83390190565b82805482825590600052602060002090601f01602090048101928215620007f35791602002820160005b838211156200087d57835183826101000a81548160ff021916908360ff16021790555092602001926001016020816000010492830192600103026200083d565b8015620008ac5782816101000a81549060ff02191690556001016020816000010492830192600103026200087d565b5050620008019291505b5b80821115620008015760008155600101620008b7565b8051620005ff8162000ccc565b600082601f830112620008ec57600080fd5b815160206001600160401b038211156200090a576200090a62000cb6565b8160051b6200091b82820162000b6b565b8381528281019086840183880185018910156200093757600080fd5b60009350835b868110156200096a57815160ff8116811462000957578586fd5b845292850192908501906001016200093d565b509098975050505050505050565b600082601f8301126200098a57600080fd5b81516001600160401b03811115620009a657620009a662000cb6565b620009bb601f8201601f191660200162000b6b565b818152846020838601011115620009d157600080fd5b620009e482602083016020870162000be1565b949350505050565b600080600080600080600060e0888a03121562000a0857600080fd5b875162000a158162000ccc565b60208901519097506001600160401b038082111562000a3357600080fd5b62000a418b838c0162000978565b975060408a015191508082111562000a5857600080fd5b62000a668b838c0162000978565b965060608a0151915062000a7a8262000ccc565b81955062000a8b60808b01620008cd565b945060a08a015191508082111562000aa257600080fd5b5062000ab18a828b01620008da565b92505060c0880151905092959891949750929550565b6001600160a01b038581168252841660208083019190915260806040830181905284519083018190526000918581019160a085019190845b8181101562000b2057845160ff168452938201939282019260010162000aff565b5050506060939093019390935250949350505050565b602081526000825180602084015262000b5781604085016020870162000be1565b601f01601f19169190910160400192915050565b604051601f8201601f191681016001600160401b038111828210171562000b965762000b9662000cb6565b604052919050565b6000821982111562000bb45762000bb462000c74565b500190565b600060ff821660ff84168060ff0382111562000bd95762000bd962000c74565b019392505050565b60005b8381101562000bfe57818101518382015260200162000be4565b8381111562000c0e576000848401525b50505050565b600181811c9082168062000c2957607f821691505b6020821081141562000c4b57634e487b7160e01b600052602260045260246000fd5b50919050565b600060ff821660ff81141562000c6b5762000c6b62000c74565b60010192915050565b634e487b7160e01b600052601160045260246000fd5b634e487b7160e01b600052602160045260246000fd5b634e487b7160e01b600052603260045260246000fd5b634e487b7160e01b600052604160045260246000fd5b6001600160a01b038116811462000ce257600080fd5b50565b60805160601c6137f762000d356000396000818161035901528181611440015281816114e001528181611571015281816116790152818161241601528181612675015261285401526137f76000f3fe6080604052600436106101b75760003560e01c806370a08231116100ec578063b88d4fde1161008a578063e3684e3911610064578063e3684e39146104ff578063e985e9c51461051f578063f2fde38b1461053f578063f5e0de1c1461055f57600080fd5b8063b88d4fde146104aa578063c59d4847146104ca578063c87b56dd146104df57600080fd5b80638da5cb5b116100c65780638da5cb5b1461043557806395d89b4114610453578063a22cb46514610468578063a5ea11da1461048857600080fd5b806370a08231146103dd578063715018a61461040b57806376e933e41461042057600080fd5b806337e219b01161015957806346d1d21a1161013357806346d1d21a146103475780634e69d5601461037b578063568508fe1461039d5780636352211e146103bd57600080fd5b806337e219b0146102e757806342842e0e1461030757806345e56e4d1461032757600080fd5b8063081812fc11610195578063081812fc14610240578063095ea7b31461027857806323b872dd1461029a57806329ce1338146102ba57600080fd5b806301ffc9a7146101bc578063054df641146101f157806306fdde031461021e575b600080fd5b3480156101c857600080fd5b506101dc6101d7366004612ee7565b610567565b60405190151581526020015b60405180910390f35b3480156101fd57600080fd5b5061021161020c366004613118565b6105b9565b6040516101e8919061338e565b34801561022a57600080fd5b50610233610667565b6040516101e891906132a3565b34801561024c57600080fd5b5061026061025b366004613118565b6106f9565b6040516001600160a01b0390911681526020016101e8565b34801561028457600080fd5b50610298610293366004612dea565b610793565b005b3480156102a657600080fd5b506102986102b5366004612bed565b6108a9565b3480156102c657600080fd5b506102da6102d5366004613118565b6108da565b6040516101e89190613275565b3480156102f357600080fd5b50610298610302366004612e16565b610963565b34801561031357600080fd5b50610298610322366004612bed565b610d10565b34801561033357600080fd5b50610298610342366004612d05565b610d2b565b34801561035357600080fd5b506102607f000000000000000000000000000000000000000000000000000000000000000081565b34801561038757600080fd5b50610390611080565b6040516101e8919061328f565b3480156103a957600080fd5b506102336103b8366004613118565b611091565b3480156103c957600080fd5b506102606103d8366004613118565b61121a565b3480156103e957600080fd5b506103fd6103f8366004612b97565b611291565b6040519081526020016101e8565b34801561041757600080fd5b50610298611318565b34801561042c57600080fd5b5061029861134e565b34801561044157600080fd5b506006546001600160a01b0316610260565b34801561045f57600080fd5b50610233611769565b34801561047457600080fd5b50610298610483366004612cd7565b611778565b34801561049457600080fd5b5061049d61183d565b6040516101e891906133f9565b3480156104b657600080fd5b506102986104c5366004612c2e565b611922565b3480156104d657600080fd5b506103fd61195a565b3480156104eb57600080fd5b506102336104fa366004613118565b611965565b34801561050b57600080fd5b5061023361051a366004613118565b611a28565b34801561052b57600080fd5b506101dc61053a366004612bb4565b611bdb565b34801561054b57600080fd5b5061029861055a366004612b97565b611c09565b610298611ca4565b60006001600160e01b031982166380ac58cd60e01b148061059857506001600160e01b03198216635b5e139f60e01b145b806105b357506301ffc9a760e01b6001600160e01b03198316145b92915050565b6105c1612a18565b6008600901600083815260200190815260200160002060405180610100016040529081600082015481526020016001820154815260200160028201548152602001600382015481526020016004820154815260200160058201548152602001600682015481526020016007820160009054906101000a900460ff16600281111561064d5761064d613715565b600281111561065e5761065e613715565b90525092915050565b6060600080546106769061364f565b80601f01602080910402602001604051908101604052809291908181526020018280546106a29061364f565b80156106ef5780601f106106c4576101008083540402835291602001916106ef565b820191906000526020600020905b8154815290600101906020018083116106d257829003601f168201915b5050505050905090565b6000818152600260205260408120546001600160a01b03166107775760405162461bcd60e51b815260206004820152602c60248201527f4552433732313a20617070726f76656420717565727920666f72206e6f6e657860448201526b34b9ba32b73a103a37b5b2b760a11b60648201526084015b60405180910390fd5b506000908152600460205260409020546001600160a01b031690565b600061079e8261121a565b9050806001600160a01b0316836001600160a01b0316141561080c5760405162461bcd60e51b815260206004820152602160248201527f4552433732313a20617070726f76616c20746f2063757272656e74206f776e656044820152603960f91b606482015260840161076e565b336001600160a01b038216148061082857506108288133611bdb565b61089a5760405162461bcd60e51b815260206004820152603860248201527f4552433732313a20617070726f76652063616c6c6572206973206e6f74206f7760448201527f6e6572206e6f7220617070726f76656420666f7220616c6c0000000000000000606482015260840161076e565b6108a48383611f2d565b505050565b6108b33382611f9b565b6108cf5760405162461bcd60e51b815260040161076e9061333d565b6108a4838383612072565b60008181526011602052604081206006810154156108fb5750600392915050565b60006109076008611d77565b9050600281600381111561091d5761091d613715565b141561092d575060029392505050565b600381600381111561094157610941613715565b1415610951575060049392505050565b5060019392505050565b505b50919050565b600260075414156109b65760405162461bcd60e51b815260206004820152601f60248201527f5265656e7472616e637947756172643a207265656e7472616e742063616c6c00604482015260640161076e565b60026007819055806109c86008611d77565b60038111156109d9576109d9613715565b146109e382611dcc565b90610a015760405162461bcd60e51b815260040161076e91906132a3565b506040516bffffffffffffffffffffffff1960608b901b16602082015260348101899052605481018690526074810185905260009060940160408051601f198184030181528282528051602091820120600854601f880183900483028501830190935286845293506001600160a01b0390911691610a9c91849190889088908190840183828082843760009201919091525061221292505050565b6001600160a01b031614610af25760405162461bcd60e51b815260206004820152601b60248201527f5769746d6f6e4552433732313a20626164207369676e61747572650000000000604482015260640161076e565b60008981526011602052604090205415610b4e5760405162461bcd60e51b815260206004820152601c60248201527f5769746d6f6e4552433732313a20616c7265616479206d696e74656400000000604482015260640161076e565b610b5c601080546001019055565b6000610b6760105490565b90506000868811610b8d5786610b7e8960646135ed565b610b8891906135d9565b610b90565b60645b905060006040518061010001604052808481526020014381526020018d81526020018c81526020018b81526020018a81526020018888600860060154604051602001610bde939291906131b4565b60408051601f198184030181529190528051602091820120825201610c046008856122fc565b6002811115610c1557610c15613715565b815250905080600860090160008e8152602001908152602001600020600082015181600001556020820151816001015560408201518160020155606082015181600301556080820151816004015560a0820151816005015560c0820151816006015560e08201518160070160006101000a81548160ff02191690836002811115610ca157610ca1613715565b0217905550505060008381526012602052604090208c9055610cc38d84612390565b604080518d8152602081018590527f22050ec7af2d31649668d13e49c000e1424a846f48d70f041f387573a7e28033910160405180910390a1505060016007555050505050505050505050565b6108a483838360405180602001604052806000815250611922565b6006546001600160a01b03163314610d555760405162461bcd60e51b815260040161076e90613308565b600080610d626008611d77565b6003811115610d7357610d73613715565b14610d7d82611dcc565b90610d9b5760405162461bcd60e51b815260040161076e91906132a3565b506001600160a01b038416610df25760405162461bcd60e51b815260206004820152601a60248201527f5769746d6f6e4552433732313a206e6f206465636f7261746f72000000000000604482015260640161076e565b6001600160a01b038516610e485760405162461bcd60e51b815260206004820152601960248201527f5769746d6f6e4552433732313a206e6f207369676e61746f7200000000000000604482015260640161076e565b610e54600260016135b4565b60ff16835114610eb15760405162461bcd60e51b815260206004820152602260248201527f5769746d6f6e4552433732313a206261642070657263656e74696c65206d61726044820152616b7360f01b606482015260840161076e565b82516001600160401b03811115610eca57610eca613741565b604051908082528060200260200182016040528015610ef3578160200160208202803683370190505b508051610f0891600a91602090910190612a70565b506000805b84518160ff161015610fa3576000858260ff1681518110610f3057610f3061372b565b602002602001015190508060086000016002018360ff1681548110610f5757610f5761372b565b90600052602060002090602091828204019190066101000a81548160ff021916908360ff1602179055508083610f8d91906135b4565b9250508080610f9b9061369f565b915050610f0d565b508060ff166064146110055760405162461bcd60e51b815260206004820152602560248201527f5769746d6f6e4552433732313a206261642070657263656e74696c6520636865604482015264636b73756d60d81b606482015260840161076e565b600880546001600160a01b038089166001600160a01b0319928316179092556009805492881692909116919091179055600b8390556040517f376bc8606c664899c04033373f69a486860166d574d6356b5580ceae35db8d6590611070908890889088908890613238565b60405180910390a1505050505050565b600061108c6008611d77565b905090565b6060600361109e836108da565b60048111156110af576110af613715565b146110fc5760405162461bcd60e51b815260206004820152601b60248201527f5769746d6f6e4552433732313a206e6f7420616c697665207965740000000000604482015260640161076e565b600082815260116020908152604080832081516101008101835281548152600182015493810193909352600280820154928401929092526003810154606084015260048101546080840152600581015460a0840152600681015460c08401526007810154909160e084019160ff169081111561117a5761117a613715565b600281111561118b5761118b613715565b9052506009546040516335b9da6560e01b81529192506001600160a01b0316906335b9da65906111bf90849060040161338e565b60006040518083038186803b1580156111d757600080fd5b505afa1580156111eb573d6000803e3d6000fd5b505050506040513d6000823e601f3d908101601f191682016040526112139190810190612f21565b9392505050565b6000818152600260205260408120546001600160a01b0316806105b35760405162461bcd60e51b815260206004820152602960248201527f4552433732313a206f776e657220717565727920666f72206e6f6e657869737460448201526832b73a103a37b5b2b760b91b606482015260840161076e565b60006001600160a01b0382166112fc5760405162461bcd60e51b815260206004820152602a60248201527f4552433732313a2062616c616e636520717565727920666f7220746865207a65604482015269726f206164647265737360b01b606482015260840161076e565b506001600160a01b031660009081526003602052604090205490565b6006546001600160a01b031633146113425760405162461bcd60e51b815260040161076e90613308565b61134c60006123aa565b565b6006546001600160a01b031633146113785760405162461bcd60e51b815260040161076e90613308565b6001806113856008611d77565b600381111561139657611396613715565b146113a082611dcc565b906113be5760405162461bcd60e51b815260040161076e91906132a3565b50600d546113cb816123fc565b6114275760405162461bcd60e51b815260206004820152602760248201527f5769746d6f6e4552433732313a2072616e646f6d6e657373206e6f7420796574604482015266081cdbdb1d995960ca1b606482015260840161076e565b6040516335369a6b60e21b8152600481018290526000907f00000000000000000000000000000000000000000000000000000000000000006001600160a01b03169063d4da69ac9060240160006040518083038186803b15801561148a57600080fd5b505afa15801561149e573d6000803e3d6000fd5b505050506040513d6000823e601f3d908101601f191682016040526114c69190810190612fcb565b604051635430260d60e11b81529091506001600160a01b037f0000000000000000000000000000000000000000000000000000000000000000169063a8604c1a9061151590849060040161344b565b60206040518083038186803b15801561152d57600080fd5b505afa158015611541573d6000803e3d6000fd5b505050506040513d601f19601f820116820180604052508101906115659190612eca565b1561165a5760006116147f00000000000000000000000000000000000000000000000000000000000000006001600160a01b031663c683b465846040518263ffffffff1660e01b81526004016115bb919061344b565b60006040518083038186803b1580156115d357600080fd5b505afa1580156115e7573d6000803e3d6000fd5b505050506040513d6000823e601f3d908101601f1916820160405261160f9190810190612f21565b6124b0565b43600f55600e8190556040518181529091507f87533c4aa2bce6bb1a8da08048c3c2e7a2354a95b8b431b22fd33d50c753b687906020015b60405180910390a150505050565b6000600d55604051636ba401df60e11b81526060906001600160a01b037f0000000000000000000000000000000000000000000000000000000000000000169063d74803be906116ae90859060040161344b565b60006040518083038186803b1580156116c657600080fd5b505afa9250505080156116fb57506040513d6000823e601f3d908101601f191682016040526116f89190810190612f55565b60015b611736573d808015611729576040519150601f19603f3d011682016040523d82523d6000602084013e61172e565b606091505b50905061173a565b9150505b7f35428cf83cc52cee3e71741c8bbdd0bec00d1ecd4c993c61bca8de8b2c3fd3da8160405161164c91906132a3565b6060600180546106769061364f565b6001600160a01b0382163314156117d15760405162461bcd60e51b815260206004820152601960248201527f4552433732313a20617070726f766520746f2063616c6c657200000000000000604482015260640161076e565b3360008181526005602090815260408083206001600160a01b03871680855290835292819020805460ff191686151590811790915590519081529192917f17307eab39ab6107e8899845ad3d59bd9653f200f220920489ca2b5937696c31910160405180910390a35050565b61187a604051806080016040528060006001600160a01b0316815260200160006001600160a01b0316815260200160608152602001600081525090565b60408051608081018252600880546001600160a01b03908116835260095416602080840191909152600a8054855181840281018401875281815294959394938601939283018282801561190a57602002820191906000526020600020906000905b825461010083900a900460ff168152602060019283018181049485019490930390920291018084116118db5790505b50505050508152602001600382015481525050905090565b61192c3383611f9b565b6119485760405162461bcd60e51b815260040161076e9061333d565b61195484848484612518565b50505050565b600061108c60105490565b606081611989816000908152600260205260409020546001600160a01b0316151590565b6119d55760405162461bcd60e51b815260206004820152601e60248201527f5769746e65744552433732313a20696e6578697374656e7420746f6b656e0000604482015260640161076e565b6000838152601260205260409020546009546001600160a01b0316636c0360eb6119fe8361254b565b604051602001611a10939291906131c6565b60405160208183030381529060405292505050919050565b606081611a4c816000908152600260205260409020546001600160a01b0316151590565b611a985760405162461bcd60e51b815260206004820152601e60248201527f5769746e65744552433732313a20696e6578697374656e7420746f6b656e0000604482015260640161076e565b6000838152601260209081526040808320548084526011835281842082516101008101845281548152600182015494810194909452600280820154938501939093526003810154606085015260048101546080850152600581015460a0850152600681015460c0850152600781015491949392909160e084019160ff90911690811115611b2757611b27613715565b6002811115611b3857611b38613715565b90525080519091508514611b4e57611b4e6136d3565b60095460405163340c4e2960e21b81526001600160a01b039091169063d03138a490611b7e90849060040161338e565b60006040518083038186803b158015611b9657600080fd5b505afa158015611baa573d6000803e3d6000fd5b505050506040513d6000823e601f3d908101601f19168201604052611bd29190810190612f21565b95945050505050565b6001600160a01b03918216600090815260056020908152604080832093909416825291909152205460ff1690565b6006546001600160a01b03163314611c335760405162461bcd60e51b815260040161076e90613308565b6001600160a01b038116611c985760405162461bcd60e51b815260206004820152602660248201527f4f776e61626c653a206e6577206f776e657220697320746865207a65726f206160448201526564647265737360d01b606482015260840161076e565b611ca1816123aa565b50565b6006546001600160a01b03163314611cce5760405162461bcd60e51b815260040161076e90613308565b600080611cdb6008611d77565b6003811115611cec57611cec613715565b14611cf682611dcc565b90611d145760405162461bcd60e51b815260040161076e91906132a3565b50600c54600090611d2d906001600160a01b0316612648565b600d91909155905034811015611d7357336108fc611d4b833461360c565b6040518115909202916000818181858888f193505050501580156108a4573d6000803e3d6000fd5b5050565b600681015460009015611dad5760038201546007830154611d98919061359c565b4311611da55760026105b3565b600392915050565b600582015415611dbf57506001919050565b506000919050565b919050565b60606003826003811115611de257611de2613715565b1415611e2157505060408051808201909152601e81527f5769746d6f6e733a206e6f7420696e20467265657a6564207374617475730000602082015290565b6000826003811115611e3557611e35613715565b1415611e7457505060408051808201909152601f81527f5769746d6f6e733a206e6f7420696e204261746368696e672073746174757300602082015290565b6001826003811115611e8857611e88613715565b1415611ead576040518060600160405280602281526020016137a06022913992915050565b6002826003811115611ec157611ec1613715565b1415611f0057505060408051808201909152601f81527f5769746d6f6e733a206e6f7420696e204861746368696e672073746174757300602082015290565b505060408051808201909152601181527015da5d1b5bdb9cce88189859081b5bdbd9607a1b602082015290565b600081815260046020526040902080546001600160a01b0319166001600160a01b0384169081179091558190611f628261121a565b6001600160a01b03167f8c5be1e5ebec7d5bd14f71427d1e84f3dd0314c0f7b2291e5b200ac8c7c3b92560405160405180910390a45050565b6000818152600260205260408120546001600160a01b03166120145760405162461bcd60e51b815260206004820152602c60248201527f4552433732313a206f70657261746f7220717565727920666f72206e6f6e657860448201526b34b9ba32b73a103a37b5b2b760a11b606482015260840161076e565b600061201f8361121a565b9050806001600160a01b0316846001600160a01b0316148061205a5750836001600160a01b031661204f846106f9565b6001600160a01b0316145b8061206a575061206a8185611bdb565b949350505050565b826001600160a01b03166120858261121a565b6001600160a01b0316146120ed5760405162461bcd60e51b815260206004820152602960248201527f4552433732313a207472616e73666572206f6620746f6b656e2074686174206960448201526839903737ba1037bbb760b91b606482015260840161076e565b6001600160a01b03821661214f5760405162461bcd60e51b8152602060048201526024808201527f4552433732313a207472616e7366657220746f20746865207a65726f206164646044820152637265737360e01b606482015260840161076e565b61215a600082611f2d565b6001600160a01b038316600090815260036020526040812080546001929061218390849061360c565b90915550506001600160a01b03821660009081526003602052604081208054600192906121b190849061359c565b909155505060008181526002602052604080822080546001600160a01b0319166001600160a01b0386811691821790925591518493918716917fddf252ad1be2c89b69c2b068fc378daa952ba7f163c4a11628f55a4df523b3ef91a4505050565b60008151604114612225575060006105b3565b60208201516040830151606084015160001a7f7fffffffffffffffffffffffffffffff5d576e7357a4501ddfe92f46681b20a082111561226b57600093505050506105b3565b8060ff16601b1415801561228357508060ff16601c14155b1561229457600093505050506105b3565b60408051600081526020810180835288905260ff831691810191909152606081018490526080810183905260019060a0016020604051602081039080840390855afa1580156122e7573d6000803e3d6000fd5b5050604051601f190151979650505050505050565b60008060005b600285015460ff8316101561237b5760028501805460ff841690811061232a5761232a61372b565b90600052602060002090602091828204019190069054906101000a900460ff168161235591906135b4565b90508060ff168460ff16116123695761237b565b816123738161369f565b925050612302565b8160ff166002811115611bd257611bd2613715565b611d738282604051806020016040528060008152506126fc565b600680546001600160a01b038381166001600160a01b0319831681179093556040519116919082907f8be0079c531659141344cd1fd0a4f28419497f9722a3daafe3b4186f6b6457e090600090a35050565b60006002604051631bc1eaf360e21b8152600481018490527f00000000000000000000000000000000000000000000000000000000000000006001600160a01b031690636f07abcc9060240160206040518083038186803b15801561246057600080fd5b505afa158015612474573d6000803e3d6000fd5b505050506040513d601f19601f820116820180604052508101906124989190612faa565b60038111156124a9576124a9613715565b1492915050565b60008060208351116124c35782516124c6565b60205b905060005b8181101561095b576124de8160086135ed565b8482815181106124f0576124f061372b565b01602001516001600160f81b031916901c92909217918061251081613684565b9150506124cb565b612523848484612072565b61252f8484848461272f565b6119545760405162461bcd60e51b815260040161076e906132b6565b60608161256f5750506040805180820190915260018152600360fc1b602082015290565b8160005b8115612599578061258381613684565b91506125929050600a836135d9565b9150612573565b6000816001600160401b038111156125b3576125b3613741565b6040519080825280601f01601f1916602001820160405280156125dd576020820181803683370190505b5090505b841561206a576125f260018361360c565b91506125ff600a866136bf565b61260a90603061359c565b60f81b81838151811061261f5761261f61372b565b60200101906001600160f81b031916908160001a905350612641600a866135d9565b94506125e1565b60008061265361283c565b60405163b281a7bd60e01b81526001600160a01b0385811660048301529192507f00000000000000000000000000000000000000000000000000000000000000009091169063b281a7bd9083906024016020604051808303818588803b1580156126bc57600080fd5b505af11580156126d0573d6000803e3d6000fd5b50505050506040513d601f19601f820116820180604052508101906126f59190613131565b9150915091565b61270683836128d6565b612713600084848461272f565b6108a45760405162461bcd60e51b815260040161076e906132b6565b60006001600160a01b0384163b1561283157604051630a85bd0160e11b81526001600160a01b0385169063150b7a02906127739033908990889088906004016131fb565b602060405180830381600087803b15801561278d57600080fd5b505af19250505080156127bd575060408051601f3d908101601f191682019092526127ba91810190612f04565b60015b612817573d8080156127eb576040519150601f19603f3d011682016040523d82523d6000602084013e6127f0565b606091505b50805161280f5760405162461bcd60e51b815260040161076e906132b6565b805181602001fd5b6001600160e01b031916630a85bd0160e11b14905061206a565b506001949350505050565b60405163d2e8756160e01b81523a60048201526000907f00000000000000000000000000000000000000000000000000000000000000006001600160a01b03169063d2e875619060240160206040518083038186803b15801561289e57600080fd5b505afa1580156128b2573d6000803e3d6000fd5b505050506040513d601f19601f8201168201806040525081019061108c9190613131565b6001600160a01b03821661292c5760405162461bcd60e51b815260206004820181905260248201527f4552433732313a206d696e7420746f20746865207a65726f2061646472657373604482015260640161076e565b6000818152600260205260409020546001600160a01b0316156129915760405162461bcd60e51b815260206004820152601c60248201527f4552433732313a20746f6b656e20616c7265616479206d696e74656400000000604482015260640161076e565b6001600160a01b03821660009081526003602052604081208054600192906129ba90849061359c565b909155505060008181526002602052604080822080546001600160a01b0319166001600160a01b03861690811790915590518392907fddf252ad1be2c89b69c2b068fc378daa952ba7f163c4a11628f55a4df523b3ef908290a45050565b6040518061010001604052806000815260200160008152602001600081526020016000815260200160008152602001600081526020016000801916815260200160006002811115612a6b57612a6b613715565b905290565b82805482825590600052602060002090601f01602090048101928215612b065791602002820160005b83821115612ad757835183826101000a81548160ff021916908360ff1602179055509260200192600101602081600001049283019260010302612a99565b8015612b045782816101000a81549060ff0219169055600101602081600001049283019260010302612ad7565b505b50612b12929150612b16565b5090565b5b80821115612b125760008155600101612b17565b600082601f830112612b3c57600080fd5b8151612b4f612b4a82613575565b613545565b818152846020838601011115612b6457600080fd5b61206a826020830160208701613623565b80516001600160401b0381168114611dc757600080fd5b8051611dc781613790565b600060208284031215612ba957600080fd5b813561121381613757565b60008060408385031215612bc757600080fd5b8235612bd281613757565b91506020830135612be281613757565b809150509250929050565b600080600060608486031215612c0257600080fd5b8335612c0d81613757565b92506020840135612c1d81613757565b929592945050506040919091013590565b60008060008060808587031215612c4457600080fd5b8435612c4f81613757565b93506020850135612c5f81613757565b92506040850135915060608501356001600160401b03811115612c8157600080fd5b8501601f81018713612c9257600080fd5b8035612ca0612b4a82613575565b818152886020838501011115612cb557600080fd5b8160208401602083013760006020838301015280935050505092959194509250565b60008060408385031215612cea57600080fd5b8235612cf581613757565b91506020830135612be28161376c565b60008060008060808587031215612d1b57600080fd5b8435612d2681613757565b9350602085810135612d3781613757565b935060408601356001600160401b0380821115612d5357600080fd5b818801915088601f830112612d6757600080fd5b813581811115612d7957612d79613741565b8060051b9150612d8a848301613545565b8181528481019084860184860187018d1015612da557600080fd5b600095505b83861015612dd45780359450612dbf85613790565b84835260019590950194918601918601612daa565b50989b979a509798606001359750505050505050565b60008060408385031215612dfd57600080fd5b8235612e0881613757565b946020939093013593505050565b60008060008060008060008060e0898b031215612e3257600080fd5b8835612e3d81613757565b97506020890135965060408901359550606089013594506080890135935060a0890135925060c08901356001600160401b0380821115612e7c57600080fd5b818b0191508b601f830112612e9057600080fd5b813581811115612e9f57600080fd5b8c6020828501011115612eb157600080fd5b6020830194508093505050509295985092959890939650565b600060208284031215612edc57600080fd5b81516112138161376c565b600060208284031215612ef957600080fd5b81356112138161377a565b600060208284031215612f1657600080fd5b81516112138161377a565b600060208284031215612f3357600080fd5b81516001600160401b03811115612f4957600080fd5b61206a84828501612b2b565b60008060408385031215612f6857600080fd5b82516101008110612f7857600080fd5b60208401519092506001600160401b03811115612f9457600080fd5b612fa085828601612b2b565b9150509250929050565b600060208284031215612fbc57600080fd5b81516004811061121357600080fd5b60006020808385031215612fde57600080fd5b82516001600160401b0380821115612ff557600080fd5b908401906040828703121561300957600080fd5b6130116134fb565b825161301c8161376c565b8152828401518281111561302f57600080fd5b929092019160c0838803121561304457600080fd5b61304c613523565b83518381111561305b57600080fd5b84016040818a03121561306d57600080fd5b6130756134fb565b81518581111561308457600080fd5b6130908b828501612b2b565b82525086820151945063ffffffff851685146130ab57600080fd5b8087018590528252506130bf848601612b8c565b858201526130cf60408501612b8c565b60408201526130e060608501612b8c565b60608201526130f160808501612b75565b608082015261310260a08501612b75565b60a0820152938101939093525090949350505050565b60006020828403121561312a57600080fd5b5035919050565b60006020828403121561314357600080fd5b5051919050565b600081518084526020808501945080840160005b8381101561317d57815160ff168752958201959082019060010161315e565b509495945050505050565b600081518084526131a0816020860160208601613623565b601f01601f19169290920160200192915050565b82848237909101908152602001919050565b63ffffffff83168460201b1760401b8152600082516131ec816018850160208701613623565b91909101601801949350505050565b6001600160a01b038581168252841660208201526040810183905260806060820181905260009061322e90830184613188565b9695505050505050565b6001600160a01b038581168252841660208201526080604082018190526000906132649083018561314a565b905082606083015295945050505050565b602081016005831061328957613289613715565b91905290565b602081016004831061328957613289613715565b6020815260006112136020830184613188565b60208082526032908201527f4552433732313a207472616e7366657220746f206e6f6e20455243373231526560408201527131b2b4bb32b91034b6b83632b6b2b73a32b960711b606082015260800190565b6020808252818101527f4f776e61626c653a2063616c6c6572206973206e6f7420746865206f776e6572604082015260600190565b60208082526031908201527f4552433732313a207472616e736665722063616c6c6572206973206e6f74206f6040820152701ddb995c881b9bdc88185c1c1c9bdd9959607a1b606082015260800190565b600061010082019050825182526020830151602083015260408301516040830152606083015160608301526080830151608083015260a083015160a083015260c083015160c083015260e0830151600381106133ec576133ec613715565b8060e08401525092915050565b60208152600060018060a01b038084511660208401528060208501511660408401525060408301516080606084015261343560a084018261314a565b9050606084015160808401528091505092915050565b6020815281511515602082015260006020830151604080840152805160c0606085015280516040610120860152613486610160860182613188565b60209283015163ffffffff166101408701529183015160ff81166080870152919050604083015160ff811660a08701529150606083015160ff811660c0870152915060808301516001600160401b03811660e0870152915060a08301519250611bd26101008601846001600160401b03169052565b604080519081016001600160401b038111828210171561351d5761351d613741565b60405290565b60405160c081016001600160401b038111828210171561351d5761351d613741565b604051601f8201601f191681016001600160401b038111828210171561356d5761356d613741565b604052919050565b60006001600160401b0382111561358e5761358e613741565b50601f01601f191660200190565b600082198211156135af576135af6136e9565b500190565b600060ff821660ff84168060ff038211156135d1576135d16136e9565b019392505050565b6000826135e8576135e86136ff565b500490565b6000816000190483118215151615613607576136076136e9565b500290565b60008282101561361e5761361e6136e9565b500390565b60005b8381101561363e578181015183820152602001613626565b838111156119545750506000910152565b600181811c9082168061366357607f821691505b6020821081141561095d57634e487b7160e01b600052602260045260246000fd5b6000600019821415613698576136986136e9565b5060010190565b600060ff821660ff8114156136b6576136b66136e9565b60010192915050565b6000826136ce576136ce6136ff565b500690565b634e487b7160e01b600052600160045260246000fd5b634e487b7160e01b600052601160045260246000fd5b634e487b7160e01b600052601260045260246000fd5b634e487b7160e01b600052602160045260246000fd5b634e487b7160e01b600052603260045260246000fd5b634e487b7160e01b600052604160045260246000fd5b6001600160a01b0381168114611ca157600080fd5b8015158114611ca157600080fd5b6001600160e01b031981168114611ca157600080fd5b60ff81168114611ca157600080fdfe5769746d6f6e733a206e6f7420696e2052616e646f6d697a696e6720737461747573a2646970667358221220bd2b56f9f7c8407e09a6af1118330d4ac061f015a006e993db24316ef675daf364736f6c63430008070033608060405234801561001057600080fd5b5060405161051c38038061051c83398101604081905261002f91610169565b80516100429060009060208401906100b7565b506100568161005f60201b6100fa1760201c565b600155506102b2565b60006002826040516100719190610215565b602060405180830381855afa15801561008e573d6000803e3d6000fd5b5050506040513d601f19601f820116820180604052508101906100b19190610150565b92915050565b8280546100c390610261565b90600052602060002090601f0160209004810192826100e5576000855561012b565b82601f106100fe57805160ff191683800117855561012b565b8280016001018555821561012b579182015b8281111561012b578251825591602001919060010190610110565b5061013792915061013b565b5090565b5b80821115610137576000815560010161013c565b60006020828403121561016257600080fd5b5051919050565b60006020828403121561017b57600080fd5b81516001600160401b038082111561019257600080fd5b818401915084601f8301126101a657600080fd5b8151818111156101b8576101b861029c565b604051601f8201601f19908116603f011681019083821181831017156101e0576101e061029c565b816040528281528760208487010111156101f957600080fd5b61020a836020830160208801610231565b979650505050505050565b60008251610227818460208701610231565b9190910192915050565b60005b8381101561024c578181015183820152602001610234565b8381111561025b576000848401525b50505050565b600181811c9082168061027557607f821691505b6020821081141561029657634e487b7160e01b600052602260045260246000fd5b50919050565b634e487b7160e01b600052604160045260246000fd5b61025b806102c16000396000f3fe608060405234801561001057600080fd5b50600436106100365760003560e01c806309bd5a601461003b578063f094000214610057575b600080fd5b61004460015481565b6040519081526020015b60405180910390f35b61005f61006c565b60405161004e9190610187565b60008054610079906101ea565b80601f01602080910402602001604051908101604052809291908181526020018280546100a5906101ea565b80156100f25780601f106100c7576101008083540402835291602001916100f2565b820191906000526020600020905b8154815290600101906020018083116100d557829003601f168201915b505050505081565b600060028260405161010c919061016b565b602060405180830381855afa158015610129573d6000803e3d6000fd5b5050506040513d601f19601f8201168201806040525081019061014c9190610152565b92915050565b60006020828403121561016457600080fd5b5051919050565b6000825161017d8184602087016101ba565b9190910192915050565b60208152600082518060208401526101a68160408501602087016101ba565b601f01601f19169190910160400192915050565b60005b838110156101d55781810151838201526020016101bd565b838111156101e4576000848401525b50505050565b600181811c908216806101fe57607f821691505b6020821081141561021f57634e487b7160e01b600052602260045260246000fd5b5091905056fea2646970667358221220afa64dd4911c36a20e08bf01be893479e7d3f2a128131648b5ce5bbbbfb20f2864736f6c634300080700335769746d6f6e733a206e6f7420696e2052616e646f6d697a696e6720737461747573",
  "immutableReferences": {
    "4032": [
      {
        "length": 32,
        "start": 857
      },
      {
        "length": 32,
        "start": 5184
      },
      {
        "length": 32,
        "start": 5344
      },
      {
        "length": 32,
        "start": 5489
      },
      {
        "length": 32,
        "start": 5753
      },
      {
        "length": 32,
        "start": 9238
      },
      {
        "length": 32,
        "start": 9845
      },
      {
        "length": 32,
        "start": 10324
      }
    ]
  },
  "source": "// SPDX-License-Identifier: MIT\npragma solidity ^0.8.0;\n\nimport \"witnet-solidity-bridge/contracts/UsingWitnet.sol\";\nimport \"witnet-solidity-bridge/contracts/requests/WitnetRequest.sol\";\n\nimport \"@openzeppelin/contracts/token/ERC721/ERC721.sol\";\nimport \"@openzeppelin/contracts/access/Ownable.sol\";\nimport \"@openzeppelin/contracts/security/ReentrancyGuard.sol\";\nimport \"@openzeppelin/contracts/utils/Strings.sol\";\n\nimport \"./interfaces/IWitmonAdmin.sol\";\nimport \"./interfaces/IWitmonEvents.sol\";\nimport \"./interfaces/IWitmonSurrogates.sol\";\nimport \"./interfaces/IWitmonView.sol\";\n\ncontract WitmonERC721\n    is\n        ERC721,\n        Ownable,\n        ReentrancyGuard,\n        UsingWitnet,\n        IWitmonAdmin,\n        IWitmonEvents,\n        IWitmonSurrogates,\n        IWitmonView\n{\n    using Counters for Counters.Counter;\n    using Strings for bytes32;\n    using Strings for uint256;\n    using Witmons for Witmons.State;\n\n    Witmons.State internal _state;\n\n    modifier inStatus(Witmons.Status _status) {\n        require(\n            _state.status() == _status,\n            Witmons.statusRevertMessage(_status)\n        );\n        _;\n    }\n\n    modifier tokenExists(uint256 _tokenId) {\n        require(\n            _exists(_tokenId),\n            \"WitnetERC721: inexistent token\"\n        );\n        _;\n    }\n\n    constructor(\n            WitnetRequestBoard _witnet,\n            string memory _name,\n            string memory _symbol,\n            address _signator,\n            IWitmonDecorator _decorator,\n            uint8[] memory _percentileMarks,\n            uint256 _expirationBlocks\n        )\n        UsingWitnet(_witnet)\n        ERC721(_name, _symbol)\n    {\n        setParameters(\n            _signator,\n            _decorator,\n            _percentileMarks,\n            _expirationBlocks\n        );\n        _state.witnetRNG = new WitnetRequest(hex\"0a0f120508021a01801a0210022202100b10e807180a200a2833308094ebdc03\");\n    }\n\n    // ========================================================================\n    // --- 'ERC721' overriden functions ---------------------------------------\n\n    function metadata(uint256 _tokenId)\n        external\n        virtual view\n        tokenExists(_tokenId)\n        returns (string memory)\n    {\n        uint256 _eggIndex = _state.eggIndex_[_tokenId];\n        Witmons.Creature memory _creature = _state.creatures[_eggIndex];\n        assert(_tokenId == _creature.tokenId);\n        return IWitmonDecorator(_state.params.decorator).getCreatureMetadata(_creature);\n    }\n\n    function tokenURI(uint256 _tokenId)\n        public view\n        virtual override\n        tokenExists(_tokenId)\n        returns (string memory)\n    {\n        uint256 _eggIndex = _state.eggIndex_[_tokenId];\n        return string(abi.encodePacked(\n            IWitmonDecorator(_state.params.decorator).baseURI,\n            _eggIndex.toString()\n        ));\n    }\n\n    // ========================================================================\n    // --- Implementation of 'IWitmonAdmin' -----------------------------------\n\n    /// Change batch parameters. Only possible while in 'Batching' status.\n    /// @param _signator Externally-owned account authorize to sign egg's info before minting.\n    /// @param _decorator Decorating logic contract producing a creature's metadata, and picture.\n    /// @param _percentileMarks Creature-category ordered percentile marks (common first).\n    /// @param _expirationBlocks Number of blocks after Witnet randomness is generated, \n    /// during which creatures may be minted.\n    function setParameters(\n            address _signator,\n            IWitmonDecorator _decorator,\n            uint8[] memory _percentileMarks,\n            uint256 _expirationBlocks\n        )\n        public\n        virtual override\n        onlyOwner\n        inStatus(Witmons.Status.Batching)\n    {\n        require(address(_decorator) != address(0), \"WitmonERC721: no decorator\");\n        require(_signator != address(0), \"WitmonERC721: no signator\");\n        require(_percentileMarks.length == uint8(Witmons.CreatureCategory.Common) + 1, \"WitmonERC721: bad percentile marks\");\n        _state.params.percentileMarks = new uint8[](_percentileMarks.length);\n        uint8 _checkSum; \n        for (uint8 _i = 0; _i < _percentileMarks.length; _i ++) {\n            uint8 _mark = _percentileMarks[_i];\n            _state.params.percentileMarks[_i] = _mark;\n            _checkSum += _mark;\n        }\n        require(_checkSum == 100, \"WitmonERC721: bad percentile checksum\");\n        \n        _state.params.signator = _signator;\n        _state.params.decorator = address(_decorator);\n        _state.params.expirationBlocks = _expirationBlocks;\n        \n        emit BatchParameters(\n            _signator,\n            _decorator,\n            _percentileMarks,\n            _expirationBlocks\n        );\n    }\n\n    /// Stops batching, which means: (a) parameters cannot change anymore, and (b) a \n    /// random number will requested to the Witnet Decentralized Oracle Network.\n    /// @dev While request is being attended, tender will remain in 'Randomizing' status.\n    function stopBatching()\n        external payable\n        virtual override\n        onlyOwner\n        inStatus(Witmons.Status.Batching)\n    {   \n        // Send the request to Witnet and store the ID for later retrieval of the result:\n        uint256 _witnetReward;\n        (_state.witnetQueryId, _witnetReward) = _witnetPostRequest(_state.witnetRNG);\n\n        // Transfers back unused funds:\n        if (msg.value > _witnetReward) {\n            payable(msg.sender).transfer(msg.value - _witnetReward);\n        }\n    }\n\n    /// Starts hatching, which means that minting of creatures will start to be possible,\n    /// until the hatching period expires (see `_hatchingExpirationBlocks`).\n    /// @dev During the hatching period the tender will remain in 'Hatching status'. Once the\n    /// @dev hatching period expires, tender status will automatically change to 'Freezed'.\n    function startHatching()\n        external\n        virtual override\n        onlyOwner\n        inStatus(Witmons.Status.Randomizing)\n    {\n        uint _queryId = _state.witnetQueryId;\n        require(\n            _witnetCheckResultAvailability(_queryId),\n            \"WitmonERC721: randomness not yet solved\"\n        );\n        Witnet.Result memory _result = witnet.readResponseResult(_queryId);\n        if (witnet.isOk(_result)) {\n            bytes32 _randomness = _bytesToBytes32(witnet.asBytes(_result));\n            _state.hatchingBlock = block.number;\n            _state.witnetRandomness = _randomness;\n            emit WitnetResult(_randomness);\n        } else {\n            _state.witnetQueryId = 0;\n            string memory _errorMessage;\n            // Try to read the value as an error message, catch error bytes if read fails\n            try witnet.asErrorMessage(_result)\n                returns (Witnet.ErrorCodes, string memory e)\n            {\n                _errorMessage = e;\n            }\n            catch (bytes memory _errorBytes) {\n                _errorMessage = string(_errorBytes);\n            }\n            emit WitnetError(_errorMessage);\n        }\n    }\n\n    // ========================================================================\n    // --- Implementation of 'IWitmonSurrogates' -------------------------------\n\n    function mintCreature(\n            address _eggOwner,\n            uint256 _eggIndex,\n            uint256 _eggColorIndex,\n            uint256 _eggScore,\n            uint256 _eggRanking,\n            uint256 _totalClaimedEggs,\n            bytes calldata _signature\n        )\n        external\n        virtual override\n        nonReentrant\n        inStatus(Witmons.Status.Hatching)\n    {\n        // Verify signator:\n        bytes32 _eggHash = keccak256(abi.encodePacked(\n            _eggOwner,\n            _eggIndex,\n            // ..\n            _eggRanking,            \n            _totalClaimedEggs\n        ));\n        require(\n            Witmons.recoverAddr(_eggHash, _signature) == _state.params.signator,\n            \"WitmonERC721: bad signature\"\n        );\n\n        // Verify not already minted:\n        require(\n            _state.creatures[_eggIndex].tokenId == 0,\n            \"WitmonERC721: already minted\"\n        );\n\n        // Increment token supply:\n        _state.totalSupply.increment();\n        uint256 _tokenId = _state.totalSupply.current();\n\n        // Fulfill creature data:\n        uint8 _percentile100 = _eggRanking > _totalClaimedEggs\n            ? 100 \n            : uint8((_eggRanking * 100) / _totalClaimedEggs)\n        ;\n        Witmons.Creature memory _creature = Witmons.Creature({\n            tokenId: _tokenId,\n            eggBirth: block.number,\n            eggCategory: _state.creatureCategory(_percentile100),\n            eggColorIndex: _eggColorIndex,\n            eggIndex: _eggIndex,\n            eggScore: _eggScore,\n            eggRanking: _eggRanking,\n            eggPhenotype: keccak256(abi.encodePacked(\n                _signature,\n                _state.witnetRandomness\n            ))\n        });\n        _state.creatures[_eggIndex] = _creature;\t\t\n        _state.eggIndex_[_tokenId] = _eggIndex;\n\n        // Mint the token:\n        _safeMint(_eggOwner, _tokenId);\n        emit NewCreature(_eggIndex, _tokenId);\n    }\n\n    // ========================================================================\n    // --- Implementation of 'IWitmonView' ------------------------------------\n\n    function getCreatureData(uint256 _eggIndex)\n        public view\n        override\n        returns (Witmons.Creature memory)\n    {\n        return _state.creatures[_eggIndex];\n    }\n\n    function getCreatureImage(uint256 _eggIndex)\n        public view\n        override\n        returns (string memory)\n    {\n        require(\n            getCreatureStatus(_eggIndex) == Witmons.CreatureStatus.Alive,\n            \"WitmonERC721: not alive yet\"\n        );\n        Witmons.Creature memory _creature = _state.creatures[_eggIndex];\n        return IWitmonDecorator(_state.params.decorator).getCreatureImage(_creature);\n    }\n\n    function getCreatureStatus(uint256 _eggIndex)\n        public view\n        virtual override\n        returns (Witmons.CreatureStatus)\n    {\n        Witmons.Creature storage _creature = _state.creatures[_eggIndex];\n        if (_creature.eggPhenotype != bytes32(0)) {\n            return Witmons.CreatureStatus.Alive;\n        } else {\n            Witmons.Status _tenderStatus = _state.status();\n            if (_tenderStatus == Witmons.Status.Hatching) {\n                return Witmons.CreatureStatus.Hatching;\n            } else if (_tenderStatus == Witmons.Status.Freezed) {\n                return Witmons.CreatureStatus.Freezed;\n            } else {\n                return Witmons.CreatureStatus.Incubating;\n            }\n        }\n    }\n\n    function getParameters()\n        external view\n        override\n        returns (Witmons.Parameters memory)\n    {\n        return _state.params;\n    }\n\n    function getStats()\n        public view\n        override\n        returns (\n            uint256 _totalSupply\n        )\n    {\n        return (\n            _state.totalSupply.current()\n        );\n    }\n\n    function getStatus()\n        public view\n        override\n        returns (Witmons.Status)\n    {\n        return _state.status();\n    }\n\n    // ------------------------------------------------------------------------\n    // --- PRIVATE METHODS ----------------------------------------------------\n    // ------------------------------------------------------------------------\n\n    function _bytesToBytes32(bytes memory _bb)\n        private pure\n        returns (bytes32 _r)\n    {\n        uint _len = _bb.length > 32 ? 32 : _bb.length;\n        for (uint _i = 0; _i < _len; _i ++) {\n            _r |= bytes32(_bb[_i] & 0xff) >> (_i * 8);\n        }\n    }\n}\n",
  "sourcePath": "/home/cyric/Data/git/otherplane/witmon/packages/core/contracts/WitmonERC721.sol",
  "compiler": {
    "name": "solc",
    "version": "0.8.7+commit.e28d00a7.Emscripten.clang"
  },
  "schemaVersion": "3.3.4",
  "updatedAt": "2021-10-08T09:02:17.647Z",
  "devdoc": {
    "kind": "dev",
    "methods": {
      "approve(address,uint256)": {
        "details": "See {IERC721-approve}."
      },
      "balanceOf(address)": {
        "details": "See {IERC721-balanceOf}."
      },
      "getApproved(uint256)": {
        "details": "See {IERC721-getApproved}."
      },
      "isApprovedForAll(address,address)": {
        "details": "See {IERC721-isApprovedForAll}."
      },
      "name()": {
        "details": "See {IERC721Metadata-name}."
      },
      "owner()": {
        "details": "Returns the address of the current owner."
      },
      "ownerOf(uint256)": {
        "details": "See {IERC721-ownerOf}."
      },
      "renounceOwnership()": {
        "details": "Leaves the contract without owner. It will not be possible to call `onlyOwner` functions anymore. Can only be called by the current owner. NOTE: Renouncing ownership will leave the contract without an owner, thereby removing any functionality that is only available to the owner."
      },
      "safeTransferFrom(address,address,uint256)": {
        "details": "See {IERC721-safeTransferFrom}."
      },
      "safeTransferFrom(address,address,uint256,bytes)": {
        "details": "See {IERC721-safeTransferFrom}."
      },
      "setApprovalForAll(address,bool)": {
        "details": "See {IERC721-setApprovalForAll}."
      },
      "setParameters(address,address,uint8[],uint256)": {
        "params": {
          "_decorator": "Decorating logic contract producing a creature's metadata, and picture.",
          "_expirationBlocks": "Number of blocks after Witnet randomness is generated,  during which creatures may be minted.",
          "_percentileMarks": "Creature-category ordered percentile marks (common first).",
          "_signator": "Externally-owned account authorize to sign egg's info before minting."
        }
      },
      "startHatching()": {
        "details": "During the hatching period the tender will remain in 'Hatching status'. Once thehatching period expires, tender status will automatically change to 'Freezed'."
      },
      "stopBatching()": {
        "details": "While request is being attended, tender will remain in 'Randomizing' status."
      },
      "supportsInterface(bytes4)": {
        "details": "See {IERC165-supportsInterface}."
      },
      "symbol()": {
        "details": "See {IERC721Metadata-symbol}."
      },
      "transferFrom(address,address,uint256)": {
        "details": "See {IERC721-transferFrom}."
      },
      "transferOwnership(address)": {
        "details": "Transfers ownership of the contract to a new account (`newOwner`). Can only be called by the current owner."
      }
    },
    "version": 1
  },
  "userdoc": {
    "kind": "user",
    "methods": {
      "setParameters(address,address,uint8[],uint256)": {
        "notice": "Change batch parameters. Only possible while in 'Batching' status."
      },
      "startHatching()": {
        "notice": "Starts hatching, which means that minting of creatures will start to be possible, until the hatching period expires (see `_hatchingExpirationBlocks`)."
      },
      "stopBatching()": {
        "notice": "Stops batching, which means: (a) parameters cannot change anymore, and (b) a  random number will requested to the Witnet Decentralized Oracle Network."
      }
    },
    "version": 1
  }
}